{
  "contractName": "Insurance",
  "abi": [
    {
      "inputs": [
        {
          "internalType": "string",
          "name": "claimby",
          "type": "string"
        },
        {
          "internalType": "string",
          "name": "claimfor",
          "type": "string"
        },
        {
          "internalType": "uint256",
          "name": "claimid",
          "type": "uint256"
        },
        {
          "internalType": "uint256",
          "name": "claimage",
          "type": "uint256"
        },
        {
          "internalType": "string",
          "name": "phone",
          "type": "string"
        },
        {
          "internalType": "string",
          "name": "dob",
          "type": "string"
        },
        {
          "internalType": "string",
          "name": "caddress",
          "type": "string"
        },
        {
          "internalType": "string",
          "name": "diagnosis",
          "type": "string"
        },
        {
          "internalType": "string",
          "name": "claimmonth",
          "type": "string"
        },
        {
          "internalType": "string",
          "name": "amount",
          "type": "string"
        },
        {
          "internalType": "string",
          "name": "filehash",
          "type": "string"
        }
      ],
      "name": "addClaim",
      "outputs": [],
      "stateMutability": "nonpayable",
      "type": "function"
    },
    {
      "inputs": [],
      "name": "viewClaims",
      "outputs": [
        {
          "internalType": "string[]",
          "name": "",
          "type": "string[]"
        },
        {
          "internalType": "string[]",
          "name": "",
          "type": "string[]"
        },
        {
          "internalType": "uint256[]",
          "name": "",
          "type": "uint256[]"
        },
        {
          "internalType": "uint256[]",
          "name": "",
          "type": "uint256[]"
        },
        {
          "internalType": "string[]",
          "name": "",
          "type": "string[]"
        },
        {
          "internalType": "string[]",
          "name": "",
          "type": "string[]"
        },
        {
          "internalType": "string[]",
          "name": "",
          "type": "string[]"
        },
        {
          "internalType": "string[]",
          "name": "",
          "type": "string[]"
        },
        {
          "internalType": "string[]",
          "name": "",
          "type": "string[]"
        },
        {
          "internalType": "string[]",
          "name": "",
          "type": "string[]"
        },
        {
          "internalType": "uint256[]",
          "name": "",
          "type": "uint256[]"
        },
        {
          "internalType": "string[]",
          "name": "",
          "type": "string[]"
        }
      ],
      "stateMutability": "view",
      "type": "function",
      "constant": true
    },
    {
      "inputs": [
        {
          "internalType": "uint256",
          "name": "id1",
          "type": "uint256"
        },
        {
          "internalType": "uint256",
          "name": "status1",
          "type": "uint256"
        }
      ],
      "name": "updateClaim",
      "outputs": [],
      "stateMutability": "nonpayable",
      "type": "function"
    }
  ],
  "bytecode": "0x608060405234801561001057600080fd5b506116b6806100206000396000f3fe608060405234801561001057600080fd5b50600436106100415760003560e01c80630ca33032146100465780634a16f32d1461006f578063991ecab61461008b575b600080fd5b61004e6100a7565b6040516100669c9b9a99989796959493929190610e49565b60405180910390f35b610089600480360381019061008491906110cc565b610958565b005b6100a560048036038101906100a091906112bc565b610bbe565b005b6060806060806060806060806060806060806000600160026003600460056006600760086009600b600a8b805480602002602001604051908101604052809291908181526020016000905b8282101561019e5783829060005260206000200180546101119061132b565b80601f016020809104026020016040519081016040528092919081815260200182805461013d9061132b565b801561018a5780601f1061015f5761010080835404028352916020019161018a565b820191906000526020600020905b81548152906001019060200180831161016d57829003601f168201915b5050505050815260200190600101906100f2565b505050509b508a805480602002602001604051908101604052809291908181526020016000905b828210156102715783829060005260206000200180546101e49061132b565b80601f01602080910402602001604051908101604052809291908181526020018280546102109061132b565b801561025d5780601f106102325761010080835404028352916020019161025d565b820191906000526020600020905b81548152906001019060200180831161024057829003601f168201915b5050505050815260200190600101906101c5565b505050509a50898054806020026020016040519081016040528092919081815260200182805480156102c257602002820191906000526020600020905b8154815260200190600101908083116102ae575b505050505099508880548060200260200160405190810160405280929190818152602001828054801561031457602002820191906000526020600020905b815481526020019060010190808311610300575b5050505050985087805480602002602001604051908101604052809291908181526020016000905b828210156103e857838290600052602060002001805461035b9061132b565b80601f01602080910402602001604051908101604052809291908181526020018280546103879061132b565b80156103d45780601f106103a9576101008083540402835291602001916103d4565b820191906000526020600020905b8154815290600101906020018083116103b757829003601f168201915b50505050508152602001906001019061033c565b50505050975086805480602002602001604051908101604052809291908181526020016000905b828210156104bb57838290600052602060002001805461042e9061132b565b80601f016020809104026020016040519081016040528092919081815260200182805461045a9061132b565b80156104a75780601f1061047c576101008083540402835291602001916104a7565b820191906000526020600020905b81548152906001019060200180831161048a57829003601f168201915b50505050508152602001906001019061040f565b50505050965085805480602002602001604051908101604052809291908181526020016000905b8282101561058e5783829060005260206000200180546105019061132b565b80601f016020809104026020016040519081016040528092919081815260200182805461052d9061132b565b801561057a5780601f1061054f5761010080835404028352916020019161057a565b820191906000526020600020905b81548152906001019060200180831161055d57829003601f168201915b5050505050815260200190600101906104e2565b50505050955084805480602002602001604051908101604052809291908181526020016000905b828210156106615783829060005260206000200180546105d49061132b565b80601f01602080910402602001604051908101604052809291908181526020018280546106009061132b565b801561064d5780601f106106225761010080835404028352916020019161064d565b820191906000526020600020905b81548152906001019060200180831161063057829003601f168201915b5050505050815260200190600101906105b5565b50505050945083805480602002602001604051908101604052809291908181526020016000905b828210156107345783829060005260206000200180546106a79061132b565b80601f01602080910402602001604051908101604052809291908181526020018280546106d39061132b565b80156107205780601f106106f557610100808354040283529160200191610720565b820191906000526020600020905b81548152906001019060200180831161070357829003601f168201915b505050505081526020019060010190610688565b50505050935082805480602002602001604051908101604052809291908181526020016000905b8282101561080757838290600052602060002001805461077a9061132b565b80601f01602080910402602001604051908101604052809291908181526020018280546107a69061132b565b80156107f35780601f106107c8576101008083540402835291602001916107f3565b820191906000526020600020905b8154815290600101906020018083116107d657829003601f168201915b50505050508152602001906001019061075b565b5050505092508180548060200260200160405190810160405280929190818152602001828054801561085857602002820191906000526020600020905b815481526020019060010190808311610844575b5050505050915080805480602002602001604051908101604052809291908181526020016000905b8282101561092c57838290600052602060002001805461089f9061132b565b80601f01602080910402602001604051908101604052809291908181526020018280546108cb9061132b565b80156109185780601f106108ed57610100808354040283529160200191610918565b820191906000526020600020905b8154815290600101906020018083116108fb57829003601f168201915b505050505081526020019060010190610880565b5050505090509b509b509b509b509b509b509b509b509b509b509b509b50909192939495969798999a9b565b60008b90806001815401808255809150506001900390600052602060002001600090919091909150908161098c9190611508565b5060018a9080600181540180825580915050600190039060005260206000200160009091909190915090816109c19190611508565b5060028990806001815401808255809150506001900390600052602060002001600090919091909150556003889080600181540180825580915050600190039060005260206000200160009091909190915055600487908060018154018082558091505060019003906000526020600020016000909190919091509081610a489190611508565b50600586908060018154018082558091505060019003906000526020600020016000909190919091509081610a7d9190611508565b50600685908060018154018082558091505060019003906000526020600020016000909190919091509081610ab29190611508565b50600784908060018154018082558091505060019003906000526020600020016000909190919091509081610ae79190611508565b50600883908060018154018082558091505060019003906000526020600020016000909190919091509081610b1c9190611508565b50600982908060018154018082558091505060019003906000526020600020016000909190919091509081610b519190611508565b50600a81908060018154018082558091505060019003906000526020600020016000909190919091509081610b869190611508565b50600b600090806001815401808255809150506001900390600052602060002001600090919091909150555050505050505050505050565b60005b600280549050811015610c2a578260028281548110610be357610be26115da565b5b906000526020600020015403610c175781600b8281548110610c0857610c076115da565b5b90600052602060002001819055505b8080610c2290611638565b915050610bc1565b505050565b600081519050919050565b600082825260208201905092915050565b6000819050602082019050919050565b600081519050919050565b600082825260208201905092915050565b60005b83811015610c95578082015181840152602081019050610c7a565b60008484015250505050565b6000601f19601f8301169050919050565b6000610cbd82610c5b565b610cc78185610c66565b9350610cd7818560208601610c77565b610ce081610ca1565b840191505092915050565b6000610cf78383610cb2565b905092915050565b6000602082019050919050565b6000610d1782610c2f565b610d218185610c3a565b935083602082028501610d3385610c4b565b8060005b85811015610d6f5784840389528151610d508582610ceb565b9450610d5b83610cff565b925060208a01995050600181019050610d37565b50829750879550505050505092915050565b600081519050919050565b600082825260208201905092915050565b6000819050602082019050919050565b6000819050919050565b610dc081610dad565b82525050565b6000610dd28383610db7565b60208301905092915050565b6000602082019050919050565b6000610df682610d81565b610e008185610d8c565b9350610e0b83610d9d565b8060005b83811015610e3c578151610e238882610dc6565b9750610e2e83610dde565b925050600181019050610e0f565b5085935050505092915050565b6000610180820190508181036000830152610e64818f610d0c565b90508181036020830152610e78818e610d0c565b90508181036040830152610e8c818d610deb565b90508181036060830152610ea0818c610deb565b90508181036080830152610eb4818b610d0c565b905081810360a0830152610ec8818a610d0c565b905081810360c0830152610edc8189610d0c565b905081810360e0830152610ef08188610d0c565b9050818103610100830152610f058187610d0c565b9050818103610120830152610f1a8186610d0c565b9050818103610140830152610f2f8185610deb565b9050818103610160830152610f448184610d0c565b90509d9c50505050505050505050505050565b6000604051905090565b600080fd5b600080fd5b600080fd5b600080fd5b7f4e487b7100000000000000000000000000000000000000000000000000000000600052604160045260246000fd5b610fad82610ca1565b810181811067ffffffffffffffff82111715610fcc57610fcb610f75565b5b80604052505050565b6000610fdf610f57565b9050610feb8282610fa4565b919050565b600067ffffffffffffffff82111561100b5761100a610f75565b5b61101482610ca1565b9050602081019050919050565b82818337600083830152505050565b600061104361103e84610ff0565b610fd5565b90508281526020810184848401111561105f5761105e610f70565b5b61106a848285611021565b509392505050565b600082601f83011261108757611086610f6b565b5b8135611097848260208601611030565b91505092915050565b6110a981610dad565b81146110b457600080fd5b50565b6000813590506110c6816110a0565b92915050565b60008060008060008060008060008060006101608c8e0312156110f2576110f1610f61565b5b60008c013567ffffffffffffffff8111156111105761110f610f66565b5b61111c8e828f01611072565b9b505060208c013567ffffffffffffffff81111561113d5761113c610f66565b5b6111498e828f01611072565b9a5050604061115a8e828f016110b7565b995050606061116b8e828f016110b7565b98505060808c013567ffffffffffffffff81111561118c5761118b610f66565b5b6111988e828f01611072565b97505060a08c013567ffffffffffffffff8111156111b9576111b8610f66565b5b6111c58e828f01611072565b96505060c08c013567ffffffffffffffff8111156111e6576111e5610f66565b5b6111f28e828f01611072565b95505060e08c013567ffffffffffffffff81111561121357611212610f66565b5b61121f8e828f01611072565b9450506101008c013567ffffffffffffffff81111561124157611240610f66565b5b61124d8e828f01611072565b9350506101208c013567ffffffffffffffff81111561126f5761126e610f66565b5b61127b8e828f01611072565b9250506101408c013567ffffffffffffffff81111561129d5761129c610f66565b5b6112a98e828f01611072565b9150509295989b509295989b9093969950565b600080604083850312156112d3576112d2610f61565b5b60006112e1858286016110b7565b92505060206112f2858286016110b7565b9150509250929050565b7f4e487b7100000000000000000000000000000000000000000000000000000000600052602260045260246000fd5b6000600282049050600182168061134357607f821691505b602082108103611356576113556112fc565b5b50919050565b60008190508160005260206000209050919050565b60006020601f8301049050919050565b600082821b905092915050565b6000600883026113be7fffffffffffffffffffffffffffffffffffffffffffffffffffffffffffffffff82611381565b6113c88683611381565b95508019841693508086168417925050509392505050565b6000819050919050565b60006114056114006113fb84610dad565b6113e0565b610dad565b9050919050565b6000819050919050565b61141f836113ea565b61143361142b8261140c565b84845461138e565b825550505050565b600090565b61144861143b565b611453818484611416565b505050565b5b818110156114775761146c600082611440565b600181019050611459565b5050565b601f8211156114bc5761148d8161135c565b61149684611371565b810160208510156114a5578190505b6114b96114b185611371565b830182611458565b50505b505050565b600082821c905092915050565b60006114df600019846008026114c1565b1980831691505092915050565b60006114f883836114ce565b9150826002028217905092915050565b61151182610c5b565b67ffffffffffffffff81111561152a57611529610f75565b5b611534825461132b565b61153f82828561147b565b600060209050601f8311600181146115725760008415611560578287015190505b61156a85826114ec565b8655506115d2565b601f1984166115808661135c565b60005b828110156115a857848901518255600182019150602085019450602081019050611583565b868310156115c557848901516115c1601f8916826114ce565b8355505b6001600288020188555050505b505050505050565b7f4e487b7100000000000000000000000000000000000000000000000000000000600052603260045260246000fd5b7f4e487b7100000000000000000000000000000000000000000000000000000000600052601160045260246000fd5b600061164382610dad565b91507fffffffffffffffffffffffffffffffffffffffffffffffffffffffffffffffff820361167557611674611609565b5b60018201905091905056fea2646970667358221220d093853c5484de33845a64828057016482c3facf95dff7093207eaebb9eff12d64736f6c63430008130033",
  "immutableReferences": {},
  "source": "// SPDX-License-Identifier: MIT\r\npragma solidity >=0.4.22 <0.9.0;\r\n\r\ncontract Insurance {\r\n    string[] _claimsby;\r\n    string[] _claimsfor;\r\n    uint[] _claimsids;\r\n    uint[] _claimages;\r\n    string[] _phonenos;\r\n    string[] _dobs;\r\n    string[] _address;\r\n    string[] _diagnosis;\r\n    string[] _claimMonth;\r\n    string[] _amounts;\r\n    string[] _filehashes;\r\n    uint[] _statuses;\r\n\r\n    function addClaim(\r\n        string memory claimby,\r\n        string memory claimfor,\r\n        uint claimid,\r\n        uint claimage,\r\n        string memory phone,\r\n        string memory dob,\r\n        string memory caddress,\r\n        string memory diagnosis,\r\n        string memory claimmonth,\r\n        string memory amount,\r\n        string memory filehash) public {\r\n            _claimsby.push(claimby);\r\n            _claimsfor.push(claimfor);\r\n            _claimsids.push(claimid);\r\n            _claimages.push(claimage);\r\n            _phonenos.push(phone);\r\n            _dobs.push(dob);\r\n            _address.push(caddress);\r\n            _diagnosis.push(diagnosis);\r\n            _claimMonth.push(claimmonth);\r\n            _amounts.push(amount);\r\n            _filehashes.push(filehash);\r\n            _statuses.push(0);\r\n        }\r\n    \r\n    function viewClaims() public view returns(string[] memory,string[] memory,uint[] memory,uint[] memory,string[] memory,string[] memory,string[] memory,string[] memory, string[] memory,string[] memory,uint[] memory,string[] memory) {\r\n        return(_claimsby,_claimsfor,_claimsids,_claimages,_phonenos,_dobs,_address,_diagnosis,_claimMonth,_amounts,_statuses,_filehashes);\r\n    }\r\n\r\n    function updateClaim(uint id1,uint status1) public {\r\n        uint i;\r\n\r\n        for (i=0;i<_claimsids.length;i++){\r\n            if(_claimsids[i]==id1){\r\n                _statuses[i]=status1;\r\n            }\r\n        }\r\n    }\r\n}\r\n",
  "sourcePath": "C:\\Users\\DELL\\OneDrive\\Pictures\\Desktop\\insurance-fraud-blockchain\\insurance-fraud-blockchain-kits-main\\contracts\\Insurance.sol",
  "compiler": {
    "name": "solc",
    "version": "0.8.19+commit.7dd6d404.Emscripten.clang"
  },
  "schemaVersion": "3.4.16",
  "updatedAt": "2024-04-08T14:04:44.655Z",
  "networkType": "ethereum",
  "devdoc": {
    "kind": "dev",
    "methods": {},
    "version": 1
  },
  "userdoc": {
    "kind": "user",
    "methods": {},
    "version": 1
  }
}